:020000042000DA
:1000000000980020A9040020B1040020C9040020A9
:1000100000000000000000000000000000000000E0
:10002000000000000000000000000000E1040020CB
:100030000000000000000000F9040020FB04002084
:10004000D5270020053103000D31030015310300D1
:10005000832800208D310300CD280020D5280020E2
:10006000FD04002057120020ED280020AD310300D0
:1000700057810200FD0400204B1B02004B1B0200B5
:100080004B1B02004B1B02004B1B02004B1B0200D0
:100090004B1B02004B1B0200FD0400204B1B020007
:020000042000DA
:10016000320000001906002045100020E93600206A
:10017000000000000000000063800200BD8002005B
:10018000990E0020FB8002001981020035810200D7
:100190005D81020055280020FF050020690E002027
:1001A000810E002000000000000000003F00000061
:1001B000F48B002000040000740B080048010000CC
:1001C0006807080000040000C80C080020050000B3
:1001D000000000002000000048000000580000005F
:1001E0006800000004010000160100002801000062
:1001F0002E010000202A00008E2E000001000000C9
:1002000088130000CF100020E9600200FD93020077
:10021000931D002019280300A5740200E12300208B
:1002200003000000D5200200013700200400000078
:10023000D74902000F490200831D020063910200AA
:10024000B7910200BF910200078202007182020092
:1002500088610020AD830200938402004185020082
:1002600015860200378602005F860200758602004E
:10027000F9870200258902005D8A0200D38C020002
:10028000098D02000F900200438D0200278E0200AC
:10029000F98E0200478F0200998F0200D58F02006D
:1002A00049510200775102002F5202001000000055
:1002B00020030000803E000000000000000000005D
:020000042000DA
:1002C000504600030003983A6400F401B80B000C98
:1002D000B80B120030003000CD009A01120024004B
:1002E00030006400B0001800280012001200D0078F
:1002F0000000FFFF00000000000000000000000000
:100300001F000002444131343538302D30310000B7
:1003100000000000000000000000000000000000DD
:0403200000000000D9
:020000042000DA
:10034000FFFF010000C201000000000000000000EB
:100350000000F4010100011B070A1AFFD200021578
:10036000585CDE931B0142CC9A1325009BEDC65EC0
:1003700000000000C5000000000009FF00605257A7
:100380002D424C450000000000000000000000006D
:1003900000000000000000000000494E464F525F80
:1003A0004C494E4B0000000000000000000000001F
:1003B000000000000000000000000000000000003D
:1003C000000000000000000000000000000000002D
:1003D0000000000000000000010000CAEA80D00711
:0403E00006D06432AD
:020000042000DA
:100440000348854605F0CEFA00480047C720020061
:100450000098002010B5114988683E2290432E3044
:1004600088600F4906200880FF200E49013008608F
:100470000021052000070180028A0F231B021A4376
:1004800002820122D204032308461B038418216040
:10049000001D9842FADB62B610BD00000033005028
:1004A0000034005080E100E01548804715480047BF
:1004B00004207146084203D0EFF30980124908472F
:1004C000EFF308801049084704207146084203D022
:1004D000EFF309800D490847EFF308800B490847FF
:1004E00004207146084203D0EFF309800849084709
:1004F000EFF3088006490847FEE7FEE7FEE7000045
:100500005504002041040020210A00201505002088
:100510008705002005221207518A80231943518242
:10052000114903680B6043684B6083688B60C36844
:10053000CB6003690B6143694B6183698B61C0695F
:10054000C8610A48836A0B62C36A4B62036B8B62A1
:10055000C36BCB62436B0B63806B4863908A8006EE
:1005600001D500BE7047FEE70018080000ED00E06E
:1005700002890889CD49101A80B2884201D9012028
:1005800070470020704781692039897F082904D28B
:10059000C74A8900515881617047FEE7C648C5497E
:1005A0000161C6494161C6498161C649C161C64907
:1005B0000162C6494162C6498162C649C162C649F3
:1005C0000163C6494163C6498163C649C163C449E1
:1005D000B9485C3140300160C3494160C349816022
:1005E000C349C1600120C349C0060860C249CA6945
:1005F0001202120ACA61BF4980390860704710B5FB
:10060000BE490020086000F0E1FB01208007016B7B
:1006100049004908016310BD1CB5B94801240470A4
:10062000B849C820088000204880B74E082575804A
:1006300005F0EAF905F038FD00F0EEFAB34801786C
:100640000170B34801780170012005F0E3F90D2035
:100650002102800105F0E4F901F0D4FF00F05CFC18
:1006600000F004FBAB4F38894009400138813889DC
:100670000F2189028843711440183881A648788276
:100680002620B8820720F882A44838837C837888A3
:100690001E21884314307880042000F000F90720E0
:1006A00000F0FDF80A2000F0FAF8062000F0F7F854
:1006B0000B2000F0F4F8012000F0F1F8022000F027
:1006C000EEF8002000F0EBF89548006805F0AEF970
:1006D000A007016882151143016000F03EF99148BE
:1006E0000068AA2805D1142000F02EFB142000F089
:1006F00039FB03F011FCFFF782FFA2200524240739
:10070000E08284484188E0229143A03141808648BC
:10071000006B007800280BD0002005F08DF905F063
:1007200091F9022806D005F08DF9012802D009E0E0
:100730000120F2E73580A08A800603D5608A8021F7
:10074000084360826F48C827078075800226042509
:100750002089000622D501208007006B00041DD4EB
:1007600005F076F9C00719D1042005F077F901905A
:1007700005F07AF90198002810D00020019069480E
:100780000068AA2802D1142000F0ECFA042101A884
:1007900005F070F9002801D000F02DFB72B6614819
:1007A0000068AA2801D100F011FB01F053FF69464F
:1007B0000870042806D002280CD003280AD001288B
:1007C00068D068E059480078012802D003200870FA
:1007D00000E00E70208A2843208253484038C069C8
:1007E0000128087811D903284BD105F049F90028D0
:1007F00047D005F04BF9002843D0032005F04CF911
:1008000000283ED04A48067008E0032839D105F098
:1008100043F9002835D0464901200870364801695F
:1008200029430161618A202291436182218A3143F7
:100830002182694609780229618A24D0294361828C
:100840007F212288890180231A4322800022521CA2
:10085000D2B20A2AFBD3628A10231A436282354A33
:10086000491E5161218880229143218029494A886B
:10087000FF2301339A434A8030BF0169A9430161D4
:1008800009E06846BFE729436182618A10229143EB
:100890006182EBE730BF62B61A48078058E7C106AD
:1008A000C90E012088402449086070473075000057
:1008B00068610020942703000084004062B600DFD6
:1008C00028A30200704701DF1CCA0200F8BD02DF46
:1008D00040CB0200F5E703DF84D4020004DF89B0D7
:1008E000BC330200F8BD05DFF8BD06DFEC0C0300E9
:1008F00070BD07DF80E100E000ED00E08C03080040
:10090000008000200031005000330050000008003B
:10091000202A0800200000504E02000077770000D7
:10092000049000200C8000202002002054020800C7
:10093000C40608000080004080E200E0704700002C
:1009400033480178002902D0802141707047314935
:10095000002008703049C87070472D480178002980
:1009600002D08121417070472A49012008702A492C
:10097000C870704726480178002902D08221417052
:10098000704724490220087023490120C87070472D
:100990001F488178002904D0491E0906090E81707C
:1009A00017D142780021002A04D09207920F0270DA
:1009B000417004E00278002A01D0521E0270120633
:1009C000120E017005D0012A02D0022A01D1D1E70E
:1009D000C3E7704710B50E4CA078401CA07020787B
:1009E000002805D105F02EF8421CFFF7A9FF227060
:1009F00010BD07490120C870704705490020C87024
:100A000070470348C078704704480078704700007A
:100A10000180002054020800C60608002B80002038
:100A200005221207118A042319431182118A022315
:100A3000194311821189402319431181174B012158
:100A40001960174B08211980518A8023194351825C
:100A5000144903680B6143684B6183688B61C36809
:100A6000CB6103690B6243694B6283698B62C06926
:100A7000C8620D48836A0B63C36A4B63036B8B6365
:100A8000C36BCB63436B074940310B60806B48609D
:100A9000908A800601D500BE7047FEE780E200E044
:100AA000003300504018080000ED00E070B56A48BF
:100AB0000022C16AD243002901D0114600E0012181
:100AC000CB17CC0B5B0423434C04C16263490D6814
:100AD0004E682C4333430C604B60C369002B01D03C
:100AE000144600E00124E317650EDB012B43C461CB
:100AF0000D68E4014E682C4333430C604B60836AFD
:100B0000002B01D0144600E00124E317250C1B0440
:100B10002B4384620D6824044E682C4333430C60DD
:100B20004B600368002B01D0134600E001230360F3
:100B30000D68DC174E682B4334430B604C608369AF
:100B4000002B01D0144600E00124E317A50E9B0101
:100B50002B4384610D68A4014E682C4333430C6021
:100B60004B604369002B01D0144600E00124E317D9
:100B7000E50E5B012B4344610D6864014E682C4314
:100B800033430C604B60C368002B00D10122C2606C
:100B9000D017530FC00018430C68D2004B68224393
:100BA00018430A60486070BD38B50024FF22012157
:100BB000234601320846009405F0C0F903250023BE
:100BC0002D022A4607211846009405F0B7F90023A4
:100BD0002A4619460120009405F0B0F90120009042
:100BE00008232A460321002005F0A8F90021072345
:100BF0002A460846009405F0A1F906232A4619461C
:100C00000020009405F09AF90523002219461046A9
:100C1000009405F093F938BD10B505242407208A07
:100C2000022188432082A08A0007FCD50C48418815
:100C3000FF22013211434180FFF7B0FCFFF7B4FF00
:100C40000721002003F00EFD03F036FE608A20210C
:100C50000843608210BD00002890002020900020F2
:100C6000200000509B4900204860704770B5052166
:100C7000090708893022904308810889802210439F
:100C80000881088980088000401C088108890823A1
:100C90001843088190480488144304804C8A9C437C
:100CA0004C820D89402425430D810D8A0426B543CD
:100CB0000D828D8AAD07FCD5864E002575600588AE
:100CC0000126354305804589AE05844D068801D54A
:100CD0002E4300E0AE43068005887826B5432835CC
:100CE000058005880626354305804D8A1D434D82C3
:100CF0000388934303800A89A2430A8140898005BF
:100D000003D575490520603188800120800701687E
:100D1000821591430160724801683F22520291435B
:100D2000421489180160016802031143016070BD1B
:100D300003216C4809028181082242800021491C5C
:100D40009629FCD38280704767494880088803222F
:100D50001043088008880422104308805D49012060
:100D6000087070477CB55B4C217800292DD05E4916
:100D70000A885207FCD4CA8800928988019111041C
:100D8000019A8918009159494843009904F08AFE54
:100D90000090002020700098A060009804F094FD5E
:100DA00005462946524804F03AFD0A2104F075FD33
:100DB00004F091FDE060284604F0A1FD4D4A4E4B41
:100DC00004F076FE04F0AFFD20617CBD10B5414813
:100DD0004168AA290CD07C204849081884B24849A7
:100DE000204604F05FFE081980B204F067FE10BDD3
:100DF000C068000AF0E710B542490120C863C86B1B
:100E00000028FCD101208007C1693F480268914257
:100E100001D20022026019238A1ADB019A4212D3FE
:100E2000016004F051FE394A1188884201D9411A03
:100E300000E0091A89B2182905D31080012004F0B6
:100E400049FE04F04DFE10BD08B5224989684843AB
:100E50002F4904F027FE009008BD08B51D49C96858
:100E60004843800A009008BD08B51A49496800291E
:100E700003D0FFF7E9FF009008BD04F037FEFAE762
:100E800008B514494968002903D0FFF7E6FF009030
:100E900008BD04F031FEFAE708B51E4901204A6991
:100EA0005206D20F13D04A699206D20F0FD00022F9
:100EB0000A610092FF225F32009B5B1C0093934209
:100EC000FAD34969C907C90F02D004F01BFE0020FC
:100ED00008BD000008800020200000500010000025
:100EE0000002004020300050001600500024F400A2
:100EF000002474497B14AE47E17A443F011200009C
:100F000071020000C00000407C0408007804080062
:100F100040420F000010005030B59C4A9C49D0055B
:100F2000048880231C4304809A4C65892D0701D4D2
:100F3000521EFAD2984C01222260984C0A882280D4
:100F4000974A4988118001889943018030BD00206B
:100F5000704770477047704700207047012189072C
:100F6000086B0722104308637047704710B58E491D
:100F70008C4808608D494C2008808C4B8C4A203B63
:100F80001A828D498B4848808D488C4901808B4955
:100F900019314180222141818121890001828949C1
:100FA00041828949018387491131418384498748B6
:100FB0002031888041218648090181808549C1808E
:100FC000844C1034C48101824182891C8182611F5A
:100FD000C182FF21463101837F4941837F495920E6
:100FE00008807E487E4C20300480432444807D4C21
:100FF0004C82D5218180FF21D33101817A49418101
:101000007A4981817B497A48088068487A49603802
:101010004180C18810242143C18071490A3901816E
:10102000624C7649403C61805A82082141815C488B
:101030006A49008840390882584871490088088008
:1010400010BD704700B58BB06E4A42626E4A826234
:101050006E4A42616E4AC2626E4A02606E4A026223
:101060006E4A42606E4AC2614F4A4E48002110608B
:101070004D484038026B03129A430263426B1F23B0
:101080001B049A4303231B04D21842636548026879
:10109000C3129A430260026803139A4302606846CF
:1010A0004154491CC9B22829FAD3014628225E4876
:1010B00004F02EFDFFF75AFF04F006FD5B4908809F
:1010C000002004F007FD04F00BFD0BB000BD10B5CF
:1010D000354A0F2133480902106033484038426BCB
:1010E0001F231B049A4303231B04D21842630006E8
:1010F0000268D208D2000260052000070289920827
:101100009200521C0281028908231A430281028A3A
:101110000A4302821F480189490949010181018965
:101120000F229202914342148918018129492031EA
:101130004182262181820721C1822D49DC39018328
:101140000121418341881E22914314314180384955
:101150000968002907D14189890504D501887822C9
:10116000914308310180FFF701FF3248006B00789E
:10117000002808D0304800880C496039C880002019
:1011800004F05AFC10BD0120FAE70000A08601001F
:10119000087F040020000050008000405602080034
:1011A0004A0308004C05540780000040602C0050A2
:1011B0007F7F0000AC2900000022005009090000D8
:1011C000002400502204000030D00000EE11000086
:1011D000002500502E02000044200000402800504E
:1011E0000D95000002420000E4DC000010920000B7
:1011F00053780000002A00508B1000009DD500009D
:10120000002600504F0F0020530F0020590F0020E0
:101210005D0F0020550F00206B0F0020570F00209E
:10122000431000200002004020000800780408005D
:101230000C80002020020020520408003B48007867
:10124000002802D00020C0437047012038494002E6
:101250000860002070470520000701883022914374
:10126000018001888908890001808088C0060BD52B
:1012700030480121818001888022914301802B48E0
:101280004068002800D000477047F0B505242407C7
:10129000A58810263543A580264C00252581D2B28D
:1012A00062802A46D7000546FD40EEB255002D1952
:1012B0006E810E46FE40F6B26E82521C042AF1DBAD
:1012C000E28903252D020004800FAA430002024395
:1012D000E281E08A0904890FA84309020843E082F9
:1012E0000121A180144A480210609A06920E8032B1
:1012F0002280124B1A68FF242402A2434401224395
:101300001A600A4A13780B43094913708039086040
:10131000F0BD0648017849084900017005480121DF
:101320008180018880229143018087E71C80002012
:1013300080E100E00001005080E200E008E400E00D
:1013400010B5424908804249884201D9642010BD45
:101350004049411878290ED863210901401A04F048
:10136000A8FA3D4904F05BFA3C4904F01BFA04F08A
:10137000B2FA1C3013E03749394CE0314118DF290B
:101380000FD855210901401A04F093FA214604F0C0
:1013900046FA344904F006FA04F09DFA001DC0B282
:1013A00010BD31494118DF290DD847210901401AE4
:1013B00004F07FFA214604F032FA022104F06DFABB
:1013C00004F089FAEBE7002010BD274910B5494227
:1013D000884209D349424018642148434721C90043
:1013E00004F09CFBC0B210BD002010BD70B50121FF
:1013F000890205464E00304600F03AF8072000F01A
:1014000044F800F050F804460021304600F030F86F
:10141000072000F03AF800F046F8001984B200F016
:101420003EF8124920090A780001002A01D1FF2262
:101430000A70012D03D0022D04D0002070BDFFF7EB
:101440007FFF70BDFFF7C1FF70BD0000C890002096
:10145000A9060000CFF9FFFF0000F2420000904211
:10146000000060430000C0418FFBFFFF248000208C
:1014700008430121890302460A4312490A80124A9D
:10148000104308800B20488070470E490A880F23BC
:101490009B0100079A43800D02430A807047094967
:1014A00000200880704707480849028802231A4331
:1014B0000280491E02D302889207FAD400210181DA
:1014C000408970470015005001400000A0860100CF
:1014D000FC4A03C2704710B5012000F084FA0520D1
:1014E000000200F0C1FAC0B210BD70B50024F64D84
:1014F000FFF7F1FFC00704D0641CAC42F8D3002012
:10150000C04370BD70B5FFF7F0FF002815D100F0A3
:101510006AFAED4E0025062000F0A6FA0024FFF737
:10152000DAFFC10703D1800701D5002070BD641C1C
:10153000B442F4D36D1C322DEDD30020C04370BDF6
:1015400070B5FFF7D2FF002815D100F04CFADE4E3F
:101550000025502000F088FA0024FFF7BCFFC107E7
:1015600003D1800701D5002070BD641CB442F4D3C0
:101570006D1C322DEDD30020C04370BD70B5FFF758
:10158000B4FF002811D100F02EFACF4E0025042020
:1015900000F06AFA0024FFF79EFF800707D0641C62
:1015A000B442F8D36D1C322DF1D30020C04370BD7E
:1015B00010B50446FFF799FF002808D1012000F07C
:1015C00012FAE01DF93000F04FFAFFF78EFF10BD60
:1015D00070B50646BB480D4600685119814201D9D5
:1015E000441B00E01446FFF780FF00281AD10220B8
:1015F00000F0F9F900F0A4F9032128460906084390
:1016000000F01BFA002000F0EEF9002505E00020B4
:1016100000F013FA3070761C6D1CA542F7D300F071
:1016200096F9204670BD70B50546A6480E4640683E
:101630001446824200D984B2FFF757FF00281ED11A
:10164000FFF760FF00281AD1022000F0CCF900F06B
:1016500077F9012130464906084300F0EEF90020F1
:1016600000F0C1F905E028786D1C00F0E6F9641E71
:10167000A4B2002CF7D100F06AF9FFF736FF70BD75
:1016800070B50D460446FFF73DFF002802D000204C
:10169000C04370BD022000F0A6F92806204300F0E8
:1016A000E3F9FFF722FF70BD10B5FFF72BFF00280D
:1016B00002D00020C04310BD002000F094F9C720E4
:1016C00000F0D2F9FFF711FF40B210BD0020C04377
:1016D000704710B5FFF709FF002812D1012000F074
:1016E00082F900F02DF90920000300F0A6F900208E
:1016F00000F0A3F9002000F0A0F9044600F027F95B
:1017000020B210BD70B5FFF7F0FE002801D0C11760
:1017100070BD002000F067F900F012F94B2000F0D6
:101720008CF9022000F05FF9002000F086F900201B
:1017300000F083F900250446284600F07EF90646AD
:101740002E4300F004F93046214670BD70B5FFF716
:10175000CCFE002817D100F046F900F0F1F89F20E8
:1017600000F06BF9002000F068F90504002000F09B
:1017700064F904022C43002000F05FF92043054681
:1017800000F0E5F8284670BDF7B582B04D4F0E4623
:101790000091796814460D46304604F083F9401CE8
:1017A0006843451E002000F01EF93868801BA042E7
:1017B00000D204462646002719E000988019A84266
:1017C00002D900982E1A761C0298B2B2C01900995C
:1017D000FFF729FF002803D00020C04305B0F0BD6B
:1017E000681C00903748BF1940682D18E61BA742B7
:1017F000E3D33846F2E710B5FFF777FE002805D1AE
:1018000000F0F1F8B92000F02FF9002010BD10B55C
:10181000002000F0E8F8AB2000F026F9002010BD11
:1018200010B50446FFF76EFE002802D00020C0432A
:1018300010BDFFF750FED3210840A1002C2211401B
:101840000843FFF7B5FE10BD10B5FFF742FF1F4973
:1018500080B2401804D0012802D00620C04310BD39
:101860000020FFF7DDFFFFF71FFF10BD70B5054635
:1018700014480E4640681446824200D984B2FFF7ED
:1018800034FE00281DD1FFF73DFE002819D10220AB
:1018900000F0A9F800F054F8012130464906084349
:1018A00000F0CBF8002000F09EF804E0284600F09D
:1018B000C4F8641EA4B2002CF8D100F048F8FFF779
:1018C00014FE70BDCC900020400D0300F010FFFF0F
:1018D000F7B582B0194F0E460091796814460D464F
:1018E000304604F0DFF8401C6843451E002000F03D
:1018F0007AF83868801BA04200D2044626460027AA
:1019000017E000988019A84202D900982E1A761C78
:10191000B2B200990298FFF7A9FF002802D0002078
:10192000C0435BE7681C00900448BF1940682D184D
:10193000E61BA742E5D3384650E70000CC900020D4
:1019400010B54F484178007804F068FB10BD10B521
:101950004B484178007804F03FFB10BDF8B50E46C7
:10196000154647490278079F0A7040781C46487020
:10197000FFF7EDFF0520000781880122D202114305
:101980008180404801884908490001800188FF2280
:1019900081329143F2011143018001884022914339
:1019A000AA0111430180018804229143A20011433E
:1019B0000180018802229143069A5200114301805E
:1019C0000188012292039143BA03114301800188E7
:1019D00018229143089AD200114301800188012204
:1019E00011430180F8BD27490A88520852000A8035
:1019F0000A88FF2381339A43C00102430A80088882
:101A0000012210430880704710B51E48018849081C
:101A1000490001800520000781880122D2029143FC
:101A2000818017484178007804F0D6FA10BD154837
:101A30000188490849000180704710B51149002309
:101A40000A88D205920F012A01D9040C8C804880A3
:101A500008888004FCD50120C880012A01D9888823
:101A600003044888C01810BD10B50446FFF768FF8E
:101A70002046FFF7E2FF0446FFF769FF204610BD4E
:101A8000D490002000120050F0B59B4D2B70052320
:101A90001B079C88202634439C80984C0023A381FC
:101AA000964B6126603B1E801E880627BE43490078
:101AB0000E431E8019881026B1431201114319806C
:101AC0008105890D99800121A181218A8906FCD493
:101AD0006870F0BD89490020888105200007818851
:101AE000202291438180704770B5844B834C834D95
:101AF0000822603B81482034203D1A82018A490730
:101B0000FCD5018A8906FCD42188AE8AC907F4D1A4
:101B100070BD30B50104784C0B0E784922786039DD
:101B2000012A02D0022A0ED110E0744A00259581C4
:101B3000C5036478ED0F25438D8001249481148AB8
:101B4000A406FCD40B82C0B2088230BD0202120E81
:101B50000A82F7E710B50446FFF7C6FF2046FFF7F5
:101B6000D8FF6648018A8907FCD5FF226349013204
:101B700060390A82028A5207FCD5028B002AFCD007
:101B8000088AC0B210BDF0B5044615460846FFF7F6
:101B9000C0FF5A4900226039FF235848013304E04E
:101BA000068AB607FCD50B82521CAA42F8D3EFF383
:101BB0001083012282F31088002209E0068B002E98
:101BC000FCD00E8A27683E702668761C521C266060
:101BD000AA42F3D3002B03D0012080F31088F0BD7C
:101BE0000020FAE7F7B50E46002A09D0012040048C
:101BF000841B944200D314462546FFF775FF08E086
:101C00000020FEBD202231466846FFF7BCFF20368B
:101C1000203C202CF6D2002C04D0224631466846C7
:101C2000FFF7B1FF2846FEBD30B50C460546FFF76D
:101C30005BFF2846FFF76DFF3048018A8907FCD516
:101C40002E4960390C82018A4907FCD5018A890630
:101C5000FCD430BDF0B506468C460846012100256F
:101C600049048C4529D2C0B249120C1AA24200D2B2
:101C70001446FFF739FFEFF31087012080F3108837
:101C80006046FFF746FF1D491C486039028A9207EB
:101C9000FCD53278761C0A82641E6D1CA4B2ADB2EB
:101CA000002CF3D1002F0AD0012181F31088018A82
:101CB0004907FCD5018A8906FCD42846F0BD0021DD
:101CC000F3E7F0B50646012040040D46814201D3FA
:101CD0000020F0BD401B904200D20246144600276F
:101CE00006E0A2B2E919F019FFF7B4FF3F18241A71
:101CF000002CF6D13846F0BDD6900020601300507D
:101D000070B5EFF31085012080F31088264803F0AA
:101D10000BFF0446002D1DD0012080F31088002CFD
:101D200023D020462038C08B204988421DD16189AC
:101D3000208903F0FFFE05000ED021461031A38953
:101D400062892089A847002806D001280DD00228E2
:101D50000BD105E00020E0E7204603F0F1FE04E0AF
:101D6000114821460C3003F0F1FEEFF310840120FE
:101D700080F310880C480068002802D1012003F08D
:101D8000EBFE002C03D0012080F3108870BD0020F2
:101D9000FAE710B5BC21064803F0E4FE054901202E
:101DA00003F0E6FE10BD0000A8050800388300001F
:101DB00004060800011D0020F8B50D460646810006
:101DC0002B48EA884458521C20686B89018F294FA0
:101DD00051430091014640314A89C989511A8AB25A
:101DE000991A89B2B94214D29A4212D0294603F004
:101DF000C5FE2D892049009803F054FE2818801C48
:101E00004034E0823002401C80B2042103F0BCFE6A
:101E1000F8BD2821304603F0BDFEF8BDF8B50546F3
:101E2000870013480C46C059C9880068114E024605
:101E300040325389D2899A1A92B28B1A9BB2B3421A
:101E400011D20B4E8A420ED003F0AAFEF0590522A1
:101E5000611C5F3003F05CFE2802401C80B205214B
:101E600003F092FEF8BD2821284603F093FEF8BD4A
:101E70004C030800FF7F00001027000070B51646D5
:101E80000D46104603F092FE002869D0340A304611
:101E900003F08CFE012812D0A87A1E2811D0294602
:101EA0000A310E2845D019DC801E030003F084FEA1
:101EB0000B255829582D58315839583D58000220C3
:101EC00070BD3146274803F07DFE0021204603F017
:101ED0007FFE0221304603F057FE41E018283CD037
:101EE00006DC102819D012282BD0162838D130E063
:101EF000522822D0D22833D127E0204603F06EFEAC
:101F00002EE0204603F070FE2AE0204603F072FE29
:101F100026E0204603F074FE22E0204603F076FE21
:101F20001EE0204603F078FE1AE0204603F07AFE19
:101F300016E0204603F07CFE12E0204603F07EFE11
:101F40000EE0204603F080FE0AE0204603F082FE09
:101F500006E0204603F084FE02E0204603F086FE01
:101F6000002070BD01280000F3B581B001980C4637
:101F70000102CA1D0E310223344803F07DFE0470B5
:101F800001990546022732488E00002C06D0042C09
:101F900016D0062C10D0072C3FD108E0815905221D
:101FA0004968897C114069708059C77335E00846DB
:101FB00003F068FE687030E080590F21C1732CE097
:101FC000044680594068417C012902D1007E0128E5
:101FD0000FD0019803F05CFE01210028A0590BD01E
:101FE0004268D07D00281CD001281AD004280DD0CA
:101FF0000FE0002068700DE04068C27D022A01D029
:10200000042A06D1007C02280BD102E0107C0228B1
:1020100007D06F70A1590320C873284603F03EFE15
:10202000FEBD6970F6E701460A780120042A01D94D
:10203000002070474A78002A01D0012AF8D10A7995
:10204000082AF5D849790829F2D87047021C0000FF
:1020500028050800FFB589B00D46002069460590A7
:1020600008720B98000A009003F012FE07460B98C6
:1020700003F09CFD00287DD00B982978000A84008D
:10208000764E01295ED0042904D0062943D00729C1
:1020900063D120E0687800281BD0305910224068B6
:1020A000A91C03F035FD002F06D03159C87B032849
:1020B00007D0042808D050E03059C07B032803D053
:1020C0004BE00B20C87348E00521009803F0ECFDBD
:1020D00043E00120B6E03059C07B0E283DD1009886
:1020E00003F0D0FD002103E02A18401C9170C0B21B
:1020F0001028F9D3688A69460883294606A8082269
:102100001431023003F004FD06ABAA1C39460098D6
:1021100003F0D0FD21E03059C07B0F281DD1AA1C4F
:102120000A21009803F0CCFD002F04D03946009816
:1021300003F0CCFD11E000231A463946009803F065
:10214000CBFD0AE0012F08D10B9803F02FFD0128E9
:102150001CD0002801D0022005906846007A002893
:1021600011D002AA0521009803F0AAFD6846027A60
:10217000602000E007E0024368460272012339460E
:10218000009803F0A9FD05980DB0F0BD3059C07B53
:102190000228E2D16878002851D002210B9803F080
:1021A000F3FC305907224068A91C173003F0B0FC3B
:1021B000E878002804D130594068407C01283AD0A2
:1021C000009803F08FFD002837D0297A009803F09B
:1021D0008FFD002833D0009803F090FD0121009876
:1021E00003F092FD00282CD030594068417E002930
:1021F0002BD0042929D0C17E027D1140C1763059EF
:102200004068017F427D114001776846007A0028CE
:10221000A7D13059022142680098173203F050FDCF
:10222000305941684031897B002913D0042100983E
:10223000FFF79AFE91E7022004E0062002E0082062
:1022400000E00320694608728BE70021C17630590F
:102250004068D9E70B21C1737FE70000280508001B
:1022600070B50446007800250D2801D00A2200E050
:1022700002225A494B7A002B06D00D2804D0637CE9
:10228000032B01D0432551E0097A8A4339D10D2827
:1022900009D00E2802D00F2803D134E0607C032837
:1022A00004D3402542E0607C0328FAD8A07C0428AF
:1022B000F7D20A2908D0607C012822D0022820D039
:1022C0006078032809D811E003F024FD012806D125
:1022D0006078032803D0002801D0492526E003F0C8
:1022E00019FD002802D160780228F6D83020035D5D
:1022F00022462046E17C3132143000F019F80546C0
:1023000014E0422512E003F005FD012807D16078B2
:10231000052804D1A01D03F003FD0028DDD003F043
:10232000F9FC002802D160780228D6D8284670BD72
:10233000FFB5002086B001216A4611700446059160
:102340000021002C06D0089D099A1F239A4234D9F7
:10235000402032E01C23069D079AF7E76B185E7851
:10236000330003F029FC1D2610101010101010105F
:10237000102626262626262626262626262610103F
:10238000101010102600059B03E06F46FF5CB7425B
:1023900004D05B1E5BB2002BF7DA03E0002B01DBFD
:1023A0004A2006E0059B6F46FE54059B5B1CDBB292
:1023B00005936B5C491C5918C9B2914201D200289F
:1023C000CCD0914202D04A200AB0F0BD641CE4B2E5
:1023D000022CF9D20028B3D0F6E7000098050800D7
:1023E000F8B50C46944916460968012500270222D3
:1023F0008B1C312873D012DC0C2874D008DC012827
:1024000021D0022840D007284FD00B2869D156E0B0
:1024100010287FD0112876D01228F7D18DE0012323
:10242000412871D008DC32286FD035286ED036288C
:102430006DD04028EAD1B1E0422869D0432868D065
:102440004428E3D1CFE006227C497D4803F06EFCAE
:10245000002808D006227A49304603F059FB0620AE
:1024600020700020F8BD744801680878C00738D093
:102470002078062801D22770C2E006229831304623
:1024800003F046FB06200EE00A786B48920728D539
:1024900022783E2AEFD305464A7E5A31304603F071
:1024A00037FB2868407E2070A7E00878400718D5E1
:1024B00020780228DFD3887C3070587C78E00A7856
:1024C0005D4812070DD52278202AD4D30546CA7D4F
:1024D0001A31304603F01CFB2868C07DE3E735E085
:1024E00001E077E016E00A785348D20672D52278E8
:1024F000202AC0D305460A7E9831304603F008FBF7
:102500002868007ECFE70EE054E028E034E03BE0AE
:1025100058E060E00878800670D520780428AAD3B7
:102520000422091D23E00878400667D5207800289A
:1025300066D0087D08E022705FE0087800065DD56F
:10254000207800285CD0487D3070F4E70888C0050A
:1025500054D5207804288ED304220C3107E0088853
:1025600080054BD52078042885D3042208313046D5
:1025700003F0CEFA042096E7088840053ED520787F
:1025800000283DD0887D36E00888000536D52078C3
:1025900002288FD3087C3070487C09E00888C0048A
:1025A0002CD52078022885D38231087F3070487F6F
:1025B0007070C0E70888800420D5207800281FD0DC
:1025C000A03117E00888400418D52078002817D0DB
:1025D000A1310FE012E0088800040FD52078002810
:1025E0000ED0A23106E00868C00307D52078002885
:1025F00006D0A33108783070237000252846F8BD36
:102600000425FBE770B50F480F49C40522888025D3
:102610002A4322800D4A53891B0701D4401EFAD257
:102620000B4A012010600622054803F071FA208849
:10263000A843208070BD0000C0060800383E03009B
:1026400025800020A0860100D47F040020000050D7
:1026500000800040FEB5544D002668690090FEF7EA
:10266000D0F90021514C002802D12079022800D154
:1026700000914F4F4F483A68002A0FD10278002A44
:102680000DD04D4A0123D363D36B002BFCD1012223
:102690009207D2691923DB019A420ED3017003F02D
:1026A0004BFB00287DD0E0780126002879D005205A
:1026B0000007808AC00701D0042672E003F0C8F941
:1026C00000286ED13D4800683F2804D120790028B9
:1026D00001D128690090A178684603F033FB0028F7
:1026E0005FD0A178684603F0C5F9002859D003F0FF
:1026F0002FFB002855D03868AA281BD09720072127
:102700000125AD07EA6B920A9202521CEA63EA6B5A
:102710002B4B80021A400243EA63E86BC002C00AF6
:1027200049050843E8633868042600280DD0AA2824
:1027300013D021E02348FEF797FB009A0321521E95
:102740000092A37893422CD8DAE700986421C00263
:1027500003F0A8F90BE001210CE0009803F0B4F8B5
:102760001949096803F01EF803F0B5F801902179C2
:102770000029F0D103F0F2FA1448C06A8047286BB0
:102780000004C00FFBD003F0EFFA03F0F3FA104897
:102790000168C905FCD50520000701898022914305
:1027A00001813046FEBD0000A0020020C6060800E0
:1027B0000C80002000800020C0000040600100204C
:1027C000FF03E0FF01120000188000201C07080032
:1027D0000002004038B5002005242407009021881D
:1027E000302001432180218803221143218002E00F
:1027F00000BF00BF00BFA18A0906F9D56189890819
:10280000890061814B494A88520852004A802188D8
:10281000814321802088800880002080A08A400792
:1028200001D5FEF7F9F92089802108432081208A0B
:10283000042188432082A08A8007FCD53E484105B8
:102840000268D20202D40A69520702D4009A002A0E
:10285000F6D038BD10B50124A407A06BFEF710FB1D
:10286000364903F01FF927221201511A00D1012124
:10287000334A50601160206B08218843084320636D
:1028800010BD10B503F07CFA2E48018949084900B3
:1028900001812D4800683F2801D103F077FA01201B
:1028A0008007816904221143816103F075FA03F006
:1028B00079FA03F07DFA25480068AA2802D114208D
:1028C000FEF742FA22490020087010BD10B503F04F
:1028D00075FA10BD10B501208007008A000704D5E5
:1028E00003F072FA1A490320087010BD70B5194838
:1028F000008885061048AD0E44681348C030006B50
:102900000078002802D1284603F064FA12480089B2
:102910000F4EC00505D5200607D5284603F060FAFE
:1029200001E0200601D502203070200401D50120ED
:10293000307070BD200000500002004071020000A5
:102940004000004000330050600100200C80002057
:102950002B80002000200050002C005010B50E21CC
:102960002B4803F043FA2B49202003F045FA0021BD
:10297000202003F009F910BD70B5254D06462988C1
:1029800004232022244803F077F90446287903F031
:1029900039FA2080A670204603F080F970BD7CB51E
:1029A00004461B4E1C48318808232022C01E03F019
:1029B00063F90480054600241FE03019817A8907F5
:1029C00008D56200012152195180817AFD221140FF
:1029D000817203E00020610049194880600080197D
:1029E000C0886A46801C80B201A903F011FA0098E1
:1029F00029190078641C8871E4B2307BA042DCD8CD
:102A0000284603F04BF90121202003F0BDF87CBDDE
:102A10002C800020EC61002006800000FFB587B00C
:102A20000F46072069460872BD4C20206080387828
:102A30000025022856D82073002646E0B8194078B1
:102A4000A11905918872012805D16946087A0821E3
:102A5000084369460872207B012805D96946087A2F
:102A60001021084369460872099800907000AD492A
:102A7000001901910390801D0023052202A903F093
:102A8000CDF905001CD103980021C08803F0CCF9D2
:102A900005460598807A012812D1122069460874EB
:102AA000039804ABC0880122401C80B2002103F0CF
:102AB000C1F903989C49C088801C80B203F0C0F91A
:102AC00007206946761C0872F6B23878B04202D9FF
:102AD000002DB3D007E0002D05D10121202003F007
:102AE00053F800E081250123202290480A9903F041
:102AF000C3F8057003F0D2F800200BB0F0BDF0B5BC
:102B000085B00D4600206946854E088133802888AF
:102B100003F09CF93071FF2801D0002452E0834B70
:102B200089215B1C9A1C7E4800F092FD52E06100F6
:102B30007B482A1903920E180491F0880327801C01
:102B40000A3280B2012103F087F975480019817AB1
:102B5000012920D1E9780427012915D104996B4670
:102B600049198A881A81898801290DD10321817226
:102B70000398017A807A814206D0F0880021801C77
:102B800082B2674800F07AFDF08802AAC01C80B2C9
:102B9000022103F061F96248007B01280CD9E000B2
:102BA00041190C31684600F0C1FAF0886A46C01934
:102BB00080B2072103F050F9A978F08803F034F9C6
:102BC000641CE4B25648017BA142B0D80221202007
:102BD00002F0DAFF002005B0F0BD70B5504D0C4694
:102BE000287903F00FF92188884221D1A078297B28
:102BF00088421DD2E17864291AD840004019C08863
:102C0000E21C801C80B2012103F026F9A07829463D
:102C10000A31415C890709D540004019C08800216C
:102C2000801C82B2284600F029FD04E08A2000E0E2
:102C30008120FFF7A1FE002070BDF8B50F4638498E
:102C4000802500200A7B09E044006118C9883B8880
:102C5000C91C8B4200D10025401CC0B230498242C1
:102C600001D9802DF0D0401EC6B2002D0FD1787A48
:102C7000397A00020843694608800AD0012808D042
:102C800080252748398800792A4603F0EBF8002090
:102C9000F8BD234C70000019C0880A46C01C80B2E1
:102CA000022103F0D9F86846008801281FD0A01936
:102CB000817AFD2211408172F8790028E1D018480C
:102CC0000623018819482022801D02F0D5FF044602
:102CD0001348007903F096F8208069460988A170AE
:102CE000090AE1702671204602F0D8FFC9E7A01951
:102CF000817A02221143DEE710B50878122802D14A
:102D00004878FFF739FE002010BD10B5044A180AB4
:102D10001279904202D10888FFF741FE002010BDD1
:102D20002C800020A861002001020000018000002A
:102D300010B51221244803F059F824491C2003F04F
:102D40005BF800211C2002F01FFF10BD30B50346C8
:102D50000120002103241A46CA40D20704D04D00A6
:102D60006D1C2246AA401043491CC9B20929F2D35E
:102D700030BD02460020122901D98D207047062A55
:102D800006D0072A07D0082AF8D10729F5D17047BD
:102D90000829F2D170470629EFD3704770B50A4C65
:102DA0000546218802231C22094802F065FF0580A0
:102DB00002F074FFE088002103F036F801211C20A6
:102DC00002F0E2FE70BD00003C8000206063002045
:102DD00004700000FEB53B4E1C2070801D46174657
:102DE00034460888FFF7B2FF029037483346019017
:102DF0000833132202A90097A01D03F00FF8040066
:102E000008D1F088002103F00FF8044601211C20AE
:102E100002F0BAFE01231C2229462C4802F02CFFA6
:102E2000047002F03BFF0020FEBD70B50C46254942
:102E30000B802078082814D8CA880831415C5118C2
:102E40008DB2822D0BD06178FFF793FF010009D17D
:102E50006D1C6178A8B2A21C02F0FEFF08E082217E
:102E600000E08121194B17485B1CDA1C00F0F0FBD5
:102E7000002070BD70B51D460C46088802F0E6FFC4
:102E8000104AFF281071158009D0A178D08802F06F
:102E9000CBFF02211C2002F077FE002070BD0B4BFF
:102EA00089219B1C9A1C074800F0D2FBF5E710B55E
:102EB000044A180A1279904202D10888FFF76EFF7F
:102EC000002010BD3C8000204C62002001700000FA
:102ED00010B50C21254802F089FF2549102002F089
:102EE0008BFF0021102002F04FFE10BD70B506468A
:102EF0001E480D4614460188042310221D4802F086
:102F0000BBFE04808670C57002F0C8FE70BD7CB543
:102F1000164C0646E088002102F086FF2089002832
:102F200002D0002102F080FF6089002802D0002139
:102F300002F07AFF0F48218804231022401E02F07D
:102F40009BFE0546E0886A46801C80B201A902F01B
:102F50005FFF2E8000980078A870284602F09EFE41
:102F60000121102002F010FE7CBD000050800020E6
:102F70003464002002400000FFB5674C83B010208D
:102F80006080664816460F46002300920190032297
:102F90001946A01D02F042FF0546E088002102F01C
:102FA00043FF3878C0071CD05D48019000232046BD
:102FB000032219460096083002F030FF20890021D4
:102FC00002F032FF574801900023204603221946A1
:102FD00000960A3002F022FF05466089002102F0C7
:102FE00023FF002D03D10121102002F0CDFD01238C
:102FF00010224D48069902F03FFE057002F04EFE89
:10300000002007B0F0BD70B5434C0D462380088802
:1030100002F01CFF2071FF2823D0A978E08802F07D
:1030200003FFE088EA1C801C80B2012102F014FF3B
:103030002089002802D0A97802F0F6FE60890028D5
:1030400009D0801C80B22A1D012102F005FFA97859
:10305000608902F0E9FE0221102002F095FD0020B7
:1030600070BD01239B035A1D89212B4800F0F0FA03
:10307000F5E770B5284D0C4629798022180A884258
:103080002AD1E9882088891C884201D1012604E0E0
:103090002989891C88421FD10226217A02290AD84F
:1030A00022460832012102F0D7FEE079002801D043
:1030B000022E03D00022012E0AD00DE0287902F062
:1030C000A1FE237A024631461846FFF70FFF03E0C0
:1030D0002188287902F0C6FE002070BD1CB50E487C
:1030E0000C460279190A914214D1A17813290ED005
:1030F00016290CD0C0886A46801C80B201A902F053
:1031000087FE0098228800780121FFF7EFFE2088D3
:10311000FFF7FDFE00201CBD50800020B0630020A2
:10312000D4630020F8630020044000000A79027094
:103130004A7942700B8883701B0AC3708A790271C6
:1031400049884171090A8171704710B54288007938
:103150001C4601020C310823FE4802F08DFD0821B7
:1031600001700121417000218180C180448002F002
:1031700095FD10BD10B50C460988002910D0428875
:10318000007906230102F3480C31401D02F074FD62
:1031900010210170218841806188818002F07EFDCC
:1031A00010BD10B50C460988002910D0428800795E
:1031B00006230102E7480C31401D02F05DFD11219C
:1031C0000170218841806188818002F067FD10BD17
:1031D00010B5428800790C460102DE480C31082304
:1031E000401F02F049FD024603201070012050806C
:1031F000801E9080022050709471210AD171104677
:1032000002F04CFD10BD10B5428800790C46010259
:10321000D0480C310823401F02F02EFD042101701C
:103220002188418061888180022141700021817163
:10323000C17102F033FD10BD10B5428800790C4613
:103240000102C4480C310823401F02F015FD05217E
:1032500001702188418061888180022141700021B4
:103260008171C17102F01AFD10BD70B50D4609885B
:103270006A796B888A180179521E09025B1C002446
:103280000C3140889A4216DB0246B2480823401FA0
:1032900002F0F2FC0146072008706A88521C4A803E
:1032A00028886A798218521E8A80022048708C71A0
:1032B000CC71084607E00A460146032002230003BA
:1032C00002F0DAFC447002F0E9FC70BDFFB50E4676
:1032D000194642881D460A3100798BB201029D4889
:1032E00081B00C31801C0A9F02F0C6FC0021818055
:1032F0000181077046800446C58001206070204629
:103300002A460A30039902F003FC204602F0C6FC6C
:1033100005B0F0BD1CB56B461A71120A5A710C2229
:103320000092022301AAFFF7D1FF1CBD70B505462C
:10333000002003460EE006245C430E5B002E0ED0F8
:103340009E00B6186418F6782479A64300D085202C
:103350005B1CDBB2AB4201D20028ECD070BD9C00FC
:10336000A418A478FF2CF3D18320F1E7F0B505462B
:103370000020044611E066008E5B002E0BD1A600F3
:10338000B618B778FF2F06D1F67806277E439E5BE6
:10339000002E00D08320641CE4B2AC4201D200288D
:1033A000E9D0F0BDFFB581B015460F4600240A9E56
:1033B00026E00498A100425A7179B01D02F058FD30
:1033C00000281BD02046062231885043295272889B
:1033D00041194A8032790A712B5C019AD21A521C27
:1033E0004A710B990978A14206D006225143285C04
:1033F0006A5C801A491948710B980470641CE4B225
:10340000BC42D6D384E7FFB581B01D4616460746B9
:10341000002416E0A0008119CA780A998A420ED1C8
:10342000325AA978E81C02F023FD002807D002993F
:103430006000095A002902D102992A880A52641CA4
:10344000E4B2BC42E6D363E7F8B5002405460028A1
:1034500015D04148C069884211D9286800280ED08B
:103460008F00C659002E0AD0002A01D0304690475E
:10347000304602F003FD29680020C85100E0812495
:103480002046F8BD70B58124054600281DD0324E77
:10349000F069884219D92868002816D02846FFF715
:1034A000D3FF040011D10146F26904E08B002868C3
:1034B000491CC058C9B28A4202D90028F6D004E09B
:1034C000002802D1284600F059F9204670BD024676
:1034D0000020002A02D0080A800010587047FFB56B
:1034E00081B007461E460D46039802F05FFBB042CE
:1034F0001CD038680399FFF7EAFF040016D06288F1
:1035000021880423284602F0B7FB05460A98288044
:1035100060880B9A010A3846FFF7B4FFA870284666
:1035200002F0BCFB3146039802F02EFBF0E6F8B542
:103530000C7915460E460746FF2C20D07088010AEC
:10354000A1420DD02102C0B201433288284602F0C8
:103550009BFC03E007300000E00100208C250FE019
:103560001A462146384600F013F9050008D138689C
:10357000A10040580622314602F0CAFA00E089252F
:103580002846F8BDFFB507460068984D81B00E4645
:1035900000280ED0002406E0214638460A9AFFF79C
:1035A00053FF641CE4B2E869A042F5D8384600F045
:1035B000E5F8F0B2049902F01FFC002406E02002B6
:1035C0003043039902F0E0FA641CE4B2E869A042D7
:1035D000F5D89DE6FFB581B01F4615460C46084656
:1035E0000A9E02F0E3FAA84208D13946204602F0CA
:1035F000CBFA210A32460198FFF744FF88E6FFB56F
:1036000081B00746039800251E460C46002800D1CD
:10361000B5887A882846083083B23988204602F077
:103620002BFB0446387902F0EDFB20800398A07153
:1036300000206080A580002E06D0308860802A4659
:10364000B11DE01D02F064FA204602F027FB5FE6A0
:10365000F8B514460F461E460546428801880623E3
:10366000204602F009FB0446287902F0CBFB2080BB
:1036700027716680204602F011FBF8BD70B5144634
:10368000428800790D4601020C310423584802F0AB
:10369000F3FA002D01D0132100E0122101704480C3
:1036A00002F0FCFA70BD0A880270120A42708A7831
:1036B0008270CA78C2700A7902714A794271897936
:1036C0008171072070474278037812021A430A80FA
:1036D00082788A70C278CA7002790A7142794A7116
:1036E000807988710720704710B5FFF721FB00F043
:1036F00081F8FFF7EDFB00F0A3F9FFF72FF910BDFC
:10370000F8B5064617460C46102002F04FFA02287C
:1037100005D1E2B210233946304602F0BBFB33201C
:1037200002F044FA022805D1E2B23323394630468A
:1037300002F0B0FB35021135284602F037FA0028B6
:1037400005D0E2B22B463946304602F0A3FB1C20DE
:1037500002F02CFA022805D1E2B21C233946304689
:1037600002F098FB202002F021FA022805D1E2B2F3
:1037700020233946304602F08DFBF8BD10B50446D3
:103780000068002803D002F079FB0020206010BD03
:10379000F7B5054600680024144E0F4600280BD1EB
:1037A000F0690121800002F07BFB286000280BD02B
:1037B000F169890002F0D6F9F069B84212D9286897
:1037C000BF00C059002801D089240CE001210298D3
:1037D00002F066FB0600F7D0029902F007FB2868AA
:1037E000C65100E081242046FEBD0000E00100201B
:1037F0000D30000008B5002002460090214B112139
:103800002148FFF7BFFE08BDF8B516460C4607462F
:103810004A8809880E231D4802F02EFA05462079B1
:1038200002F0F0FA2880AE70002E0BD0002000903D
:103830000346618801221448FFF7CCFE284602F0B7
:103840002DFAF8BD39460A220831281D02F060F928
:103850006088022102F098F9F0E770B50E46044640
:103860004288018809480423801C02F005FA0546B5
:10387000207902F0C7FA2880AE70284602F00EFACE
:1038800070BD0000846400206080002001440000BE
:103890007CB51E4615460C46088802F0D7FA01464C
:1038A00068460171458006801423224669465F48B8
:1038B000FFF73DFE02468C2804D0002A04D069465A
:1038C000002013E001207CBD584829460068FFF71E
:1038D000FEFD0646A07800280BD030460A22211DA6
:1038E000083002F015F9002269463046FFF78CFFD8
:1038F00009E04F4C30462146FFF76AFCF480012175
:10390000284602F041F900207CBD10B547480C461E
:1039100011460068FFF7DBFD218801816188418144
:10392000C17C491CC174002010BD1CB53F480C4629
:1039300011460068FFF7CBFD02461230009401905B
:1039400050893C4B0C320121FFF72CFD00201CBD9F
:1039500038B536480D4611460068FFF7B8FD0446F5
:10396000007902F04FFA2988884206D1A878002809
:1039700009D0012807D0022805D081212046FFF771
:103980006CFF002038BDA089002808D00D200090D1
:10399000E1890123AA1C2046FFF798FCF1E7822168
:1039A000ECE770B514460D46104602F0FFF80646E7
:1039B0001E4821460068FFF78AFD0446012E27D1E4
:1039C00068780A2801D0002822D1E08818491A4DC9
:1039D000884210D12089002804D0E07C012803D936
:1039E000842211E083220FE0214608312046FFF7B0
:1039F00023FCE5800CE0A8420AD121460D4A0C3197
:103A00000120FFF793FC024621460846FFF7FCFE23
:103A1000002070BD1CB50888002300900749019361
:103A20000248FFF75CFD00201CBD00006080002004
:103A300002180000946400200328000002440000E3
:103A400010B508211A4802F0D1F91A49332002F0C2
:103A5000D3F90021332002F097F810BD70B5144D52
:103A60000646298818233322134802F005F9044634
:103A7000287902F0C7F92080A670204602F00EF9DE
:103A800070BD70B50A4D0446E888002102F0CCF9FB
:103A90000948298804233322001F02F0EDF804802E
:103AA00002F0FCF80121332002F06EF870BD000036
:103AB0006A8000204C65002005CC0000FFB58BB06B
:103AC0000521C90268468182C91C0182FA49018325
:103AD000FA4C3321618006219925009108220023A8
:103AE00001953321A01D02F0E1F905007ED1A01D52
:103AF0000125009501900222E08805AB114602F0F5
:103B0000DBF9E088EE4A022102F0A6F903AE019645
:103B10000095E08804AB0222132102F0CDF902AF38
:103B2000092001970090E088E64B1022042102F062
:103B3000C3F9E5496846007A48706846407A88705B
:103B40000A4668461321808902F086F9019600959D
:103B5000E08804AB0222132102F0AEF9092001979C
:103B60000090E088D94B1022042102F0A5F9D84931
:103B70006846007A48706846407A88700A46684607
:103B80001321808902F068F901960095E08804AB62
:103B90000222132102F090F901970095E088CD4BA5
:103BA0001022042102F088F9CB496846007A487057
:103BB0006846407A88700A4668461321808902F078
:103BC0004BF901960095E08804AB0222132102F024
:103BD00073F9092001970090E088C04B1022022160
:103BE00002F06AF96846BE49007A00E058E0487081
:103BF0006846407A88700A4668461321808902F038
:103C00002BF901960095E08804AB0222132102F003
:103C100053F9092001970090E088B24B102214213B
:103C200002F04AF9B0496846007A48706846407A1E
:103C300088700A4668461321808902F00DF9AB4D61
:103C400001960095E08804AB0222132102F034F9BA
:103C500001970095E088A64B1022012102F02CF973
:103C6000A4496846007A48706846407A88700A46D7
:103C700068461321808902F0EFF809A90920019113
:103C800000900222E08806AB114602F015F90546C5
:103C9000E088002102F0C8F80121332001F074FF10
:103CA0000123332294480E9901F0E6FF057001F0DC
:103CB000F5FF00200FB0F0BD3EB5804C0D46E0880A
:103CC00002AA0C3080B2694602F0A2F8E08801AA8C
:103CD0000D3080B2694602F09BF8E088AA1C0C30D7
:103CE00080B2012102F0B8F801980088002806D0BF
:103CF000E08800210C3082B22046FFF7BFFC002094
:103D00003EBD10B56D480A46C0880421801D80B2B2
:103D100002F0A2F8002010BD38B50D46002069461B
:103D2000664C08802380288802F090F82071FF28D4
:103D300017D0E0886A460D3080B2022102F08CF87C
:103D4000E0886A460C3080B2012102F085F8A9783B
:103D5000E08802F069F80221332001F015FF00200D
:103D600038BD654A33239B02521C89215348FFF713
:103D70006FFCF4E7F8B5514D0C4629798022180AFA
:103D800088427DD1E988208826468B1C002708368A
:103D900098420ED1012100916188324602F05CF810
:103DA000E079002875D05448082333222988C01FA1
:103DB00010E00B1D984229D1022100916188324602
:103DC00002F04AF8E079002863D04B48298808239C
:103DD0003322801F01F050FF0646287902F012F8C6
:103DE00030807760E07A01067160A07A00040143B8
:103DF0007160607A000201437160207A0143716052
:103E00000098B070304601F049FF42E00B460A339B
:103E100098421BD104200090E079002839D0364820
:103E2000298818233322001F01F026FF074628792E
:103E300001F0E8FF388062883146381D01F068FEE5
:103E4000A078F8700098B8703846DCE70B46083365
:103E5000984220D1032100916188324601F0FCFF95
:103E6000E079002815D02448298806233322401FF2
:103E700001F002FF0646287901F0C4FF308000E01F
:103E800018E0B780607A0102B180207A0143B180E6
:103E9000B6E7002207E00D31884204D1618832463E
:103EA00001F0DAFFF5E7A079012803D1218828790C
:103EB00001F0D8FF0020F8BD022900006A80002030
:103EC000E8640020EA640020FC660020FA64002018
:103ED0000F6700200A650020226700201A65002075
:103EE000356700202A650020486700200102000095
:103EF0003A6500205B67002009CC000010B5054A38
:103F0000180A1279904202D10888FFF7BAFD002002
:103F100010BD00006A80002038B501246846047096
:103F20000C21494801F062FF474D6946EC702A1D9B
:103F3000352001F0C7FF002800D02C7100F0F8FCFC
:103F40004249322001F058FF0021322001F01CFECE
:103F500000F0B2F838BD10B500F0B0FD10BD10B5DE
:103F6000394802238078322201020E31384801F0AC
:103F700083FE012101701321417001F08FFE10BDFD
:103F800010B5044630482C23807832220102304894
:103F90000E31801E01F070FE0146203004720022B6
:103FA0004272084601F07AFE10BD10B5502332224D
:103FB0000D21284801F060FE044600F000FD204677
:103FC00001F06CFE0221322001F0DEFD10BD21481F
:103FD00010B5012332220D210B3801F04DFE0221D4
:103FE000017001F05BFE10BD10B500F089FD10BD41
:103FF000194B10B59A4201D91A4602E0002A00D1A5
:10400000012201F065FF10BDF8B5064611481546BE
:104010000F46252332220D21C01C01F02DFE04463F
:10402000012020772046062239461D3001F070FD20
:104030002320065565822582204600F090FD20460B
:1040400001F02CFEF8BD000074800020AC6500205B
:10405000043800000E3400003075000010B501F087
:104060003DFF254901F05AFD2448081810BDF8B558
:10407000234D0646A876002401F030FF2919641C60
:10408000E4B20874082CF7D300241027381BB04280
:1040900001DD002007E001F021FFC117090E09181A
:1040A000090A0902401A2855641CE4B2102CEDD309
:1040B00001F014FF2883F8BD10B52421104801F049
:1040C00095FE00F044FC10BD10B50E480223807828
:1040D000322201020E310C4801F0CEFD0D2101709B
:1040E000074920318978417001F0D8FD0321322041
:1040F00001F04AFD10BD0000A0BB0D00A08601002C
:1041000080800020748000201A38000010B5084616
:1041100009781C460B0001F04FFD080520202008FF
:10412000181B1E2000F01EFD17E04178012904D065
:10413000002902D0022903D00FE000F02BFD0CE093
:104140001146204600F08DFD07E000F041FD04E03F
:1041500000F03FFD01E000F059FD002010BD10B55A
:104160000878304C801E030001F026FD020214186E
:104170008878A070C0070AD02B492A4A4879203A8B
:10418000D07628480622891D001F01F0C1FC00F0EE
:1041900063FD03E0FFF7E3FE0020A070002010BDE8
:1041A000F8B518460D4601461223204801F064FD7B
:1041B0000446284600F051FD0027002821D0194E62
:1041C000B078C0071DD030460822A91C103801F075
:1041D000ADFD002815D130462038018B2A88914248
:1041E0000FD101212170807E607431461022203968
:1041F000601C01F08DFCB078FFF7C2FE00F030FDCE
:1042000000E02770204601F049FD2078002801D108
:10421000FFF7A5FE0020F8BD10B500F020FD00203E
:1042200010BD0000A080002074800020183800001D
:1042300010B5104601F0BAFC002809D10123322242
:104240000D21484801F018FD0121017001F026FD03
:10425000002010BD70B5087815460F282DD008DC59
:1042600001280DD002282CD003281CD00E2830D1D4
:104270001FE0102825D0112823D0122829D123E0AF
:104280004878002825D13748222332220D21801C6E
:1042900001F0F2FC04460146284600F032FC2046BC
:1042A00001F0FCFC15E04878002812D100F03DFC3C
:1042B0000FE0487800F046FC0BE0487800F049FC3D
:1042C00007E000F04BFC04E04878442801D100F0FE
:1042D00048FC002070BD70B51C4610460D4601F02C
:1042E00065FC022805D12049200A8870284600F084
:1042F00032FB002070BD70B5087815460C460A28C0
:1043000010D1104601F052FC04280BD1607800282F
:1043100002D000F0F4FB05E00521284601F034FC52
:1043200000F00FFC002070BD10B5104600F0B7FB88
:10433000002010BD10B510460C4601F037FC0128D6
:1043400008D12078002805D1FFF705FE002801D00C
:1043500000F000FC002010BD10B5084600F000FC85
:10436000002010BD023400007480002010B5202110
:1043700003233222880201F07FFC01210170417089
:104380000021817001F08AFC10BD10B50120FDF7FD
:104390002DF84849087010BD10B504464548C17055
:1043A000027143711C2332222021434801F064FC36
:1043B00042490123098801808370C37000228280F2
:1043C000C280047242728472C2723D4C8481C28186
:1043D000042404744274837401F060FC10BD70B551
:1043E000344C01256570E078002803D0617920798C
:1043F00001F0F2FDA570C82232213248FFF7F8FD26
:1044000070BD10B504462C48042332222021C01C64
:1044100001F032FC29490988018000218170C470B3
:1044200001F03CFC10BD70B50120FCF7DFFF214D11
:1044300004462878844202D02046FFF7E2FF2C7021
:10444000E878002803D0052C01D2FFF7C8FF70BD23
:1044500010B518490A22C8801A483221401EFFF7B9
:10446000C7FD10BD174810B53221401E01F0AAFB50
:1044700010BD70B50F4C00256570E078002803D0A2
:104480006179207901F0CAFDA57032210D4801F053
:1044900099FB70BD10B50748C178002906D0817816
:1044A00001294179007902D001F0B8FD10BD01F079
:1044B00093FD10BDA68000200280000074800020C3
:1044C000AD27000003C8000010B532220C460123BE
:1044D0001146900201F0D0FB2178017001F0DEFB63
:1044E000002010BD002070470020704710B5144612
:1044F000FFF799FF1448214602881448FFF778FD1A
:10450000002010BD70B5124815460078002818D05C
:10451000104C114911480D4E2278761C097800780C
:10452000002A05D001F07AFD00202070142204E05A
:1045300001F052FD01202070052229463046FFF788
:1045400057FD002070BD0000AC80002002C80000B4
:10455000A9800020A8800020AB800020AA80002035
:10456000704710B511210E233222880201F084FB1E
:104570000B49098801800021817001F08FFB10BD7B
:1045800010B5042332221121064801F075FB0449BD
:10459000098801800221817001F080FB10BD0000BC
:1045A000748000200444000000207047354A1072D7
:1045B0005172704710B5334800214171016001719B
:1045C000417A007A01F02AFD32212F4801F0FAFAEF
:1045D00010BD10B5102106233222880201F04CFBD9
:1045E0000446FFF7E7FF294826490088208001207C
:1045F000A0708879E070C8792071204601F04EFBE8
:1046000010BD10B51F4C012860710ED03220206003
:1046100001202071617A207A01F0DEFC20883221AD
:1046200082B2194801F054FC10BD9620EFE710B596
:10463000042332220121164801F01EFB1349098888
:1046400001800021817001F029FB10BD10B501230C
:10465000322210210F4801F00FFB0121017001F0FF
:104660001DFB10BD10B5FFF7A1FF06480179012918
:10467000417A007A02D001F0D1FC10BD01F0ACFC0F
:1046800010BD0000B080002001C800007480002030
:104690000F0400000340000010B510460C4601F066
:1046A00085FA012809D1322201231146900201F036
:1046B000E3FA2178017001F0F1FA002010BD2048E2
:1046C0000A880088904202D188781E4988710020AB
:1046D000704710B50A781B48002A01D0002105E078
:1046E000174A4B8812889A4201D10979C171FFF7A4
:1046F00070FF002010BD10B58878002802D0FFF7A9
:1047000080FF01E0FFF756FF002010BD70B50D4C93
:10471000154621462279087A497A002A03D001F009
:104720007DFC002002E001F057FC01202071208870
:10473000294682B2044801F0CBFB002070BD000086
:1047400074800020B080002001C80000704710B5C0
:104750001C2102233222880201F08EFAFF216431EB
:10476000018001F09BFA10BD10B5044604233222EB
:104770001C21054801F080FA04800121817000218C
:10478000C17001F08BFA10BD03700000FEB5104639
:104790000D4601F00BFA012872D12878002865D166
:1047A0000E2332221C21384801F066FA044600200C
:1047B00020700B2767703A4634A1A01C01F0A8F9BD
:1047C000204601F06BFA0A2332221C212E4801F008
:1047D00053FA0446012020700720607002462EA183
:1047E000A01C01F095F9204601F058FA0B23322263
:1047F0001C21254801F040FA0446062020700826B6
:104800006670324626A1A01C01F082F9204601F014
:1048100045FA0E2332221C211B4801F02DFA0446D2
:104820000520207067703A4620A1A01C01F070F9A5
:10483000204601F033FA0A2332221C21124801F0EB
:104840001BFA04460670072060700120A070D22178
:1048500068460180F9014180710181800622694624
:10486000E01C01F055F9204601F018FA322201232C
:104870001146900201F000FA2978017001F00EFA59
:104880000020FEBD00207047027000004469616C8A
:104890006F672053656D690044413134353830000D
:1048A000123456FFFE9ABCDE00000000765F332E05
:1048B000302E342E3237300010B5FB4801F04EFC5C
:1048C0000121084601F064FB002805D001225002B6
:1048D00000230146FCF7D9FC10BD10B5F348407920
:1048E000002802D0FFF766FE06E0112001F05EF915
:1048F000022801D1FFF744FE05200007808A400707
:1049000001D5FCF789F9FCF77CF800280DD0FCF7FD
:1049100024F8E7488168012211438160FCF76DF8B3
:1049200000223221E34801F0DFFAFFF7C5FF10BD96
:1049300010B507210020FFF739FEDC4902208871FD
:10494000FFF723FDFFF702FF00F0DAF910BDDA48A8
:1049500001218170704770B5D84C0546A078FF28BA
:104960002AD0FFF736FED6480122002311460078F0
:10497000FFF712FDD348FFF76BFDFFF7F2FD20882C
:10498000FFF7F2FE00F0DAF90521322001F0FCF821
:1049900028882080687A6071294606220A31A01D85
:1049A00001F0B6F8C4488078FFF7EAFAC14832212E
:1049B000401E01F007F970BDFFF7F7FA70BDF0B5C2
:1049C000044691B00E20207000206070BE48A08187
:1049D000E08107202074012060741C20E0742546CB
:1049E00022461F212035143229741646511E0B20F1
:1049F00001F068FA002805D00822E274B3A130461D
:104A000001F086F8224631321746511E0C2001F083
:104A100059FA002805D00A222A74AFA1384601F0BD
:104A200077F8E07C1A21081A45B2002D2FDD3E20D0
:104A30006946087001AA022001F044FA002806D055
:104A40000B2268460270A7A101A801F053FA68463C
:104A5000007800281BD0A84200D2054668460570A1
:104A6000E07C6D1C8555E27C2046092115301154EF
:104A7000E17C401C0B186846027801A9184601F039
:104A800047F868460078E17C801C0818E074894883
:104A9000974A3221401EFFF7ABFA11B0F0BD10B5B6
:104AA00001F084F80446FFF7DDFC032C03D0052C4D
:104AB00001D0042C01D1FFF778FA10BD70B57F4DFD
:104AC0000024E878052817D201280CD0022804D049
:104AD000032805D004280BD108E0FFF7B7FD07E055
:104AE000FFF744FC04E0FFF732FE01E000F01AF9A2
:104AF000E878401CE87000E00124204670BD704753
:104B00007047032008700A2048700020488208750A
:104B100048751722CA8208220A8310224A83888392
:104B20006422CA8320310870704710B501213220F9
:104B300001F02AF8FFF70FFA002801D0FFF735FA45
:104B400010BD70475B4810B53221401E01F03AF8A5
:104B500010BD704710B5FFF728FA10BD70477047B9
:104B60007047704710B51E2332220E21614801F0B4
:104B700083F80121017041700022C270102343713B
:104B8000032383700171027204228271C17101F0EA
:104B900085F810BD70B51E2332220E21554801F054
:104BA0006BF80446FFF75AFA0546042020700120EE
:104BB00060701021A01C01F019F9280E6071280CFA
:104BC0002071280AE070A570204601F067F870BDDA
:104BD000704770B505461E2332220E21454801F06C
:104BE0004BF804466878FFF742FA0620207001204F
:104BF00060701021A01C01F0F9F806223EA1A01C53
:104C000000F086FF204601F049F870BD70B50546FA
:104C10001E2332220E21374801F02EF80446687810
:104C2000FFF725FA07202070234901206070203902
:104C3000887E2077088B608220460822103114304D
:104C400000F066FF1C4910222039A01C00F060FF14
:104C5000204601F023F870BD70470120704770476F
:104C60007047704710B5FFF7B2F9124C3221641E3D
:104C7000204600F0A7FFFBF77DFE3221204600F022
:104C8000A1FFFFF797FCFBF7B4FEFFF715FE00202E
:104C900010BD10B5104600F089FF022801D1FFF7C2
:104CA00084F9002010BD0000DB480020B080002007
:104CB0000033005005C80000A08000207480002050
:104CC000A6800020701700004C04000007030318A2
:104CD000021804180000000009FF006052572D421E
:104CE0004C45000044413134353830205058520092
:104CF0005046000014380000ABAB455523010000BE
:104D0000FE480021017441618161C160FC4A017764
:104D10001165142101707047F84800210174416148
:104D2000C160704710B5012332223321F54800F0ED
:104D3000A3FF0021017000F0B1FF10BD10B53321B9
:104D400010233222880200F097FFEF490988018082
:104D50000121817000214160816000F09FFF10BD42
:104D600010B50446E94804230288E6483321401E72
:104D700000F082FFE44909880180847000F08EFF12
:104D800010BD10B5DD4C2078022801D1FCF7A2FE41
:104D90002078032801D1FCF737FE1420207010BDC5
:104DA00008B5AA2168460170D44802784068132AE1
:104DB00003D0801CFCF738FF09E0811C0122684603
:104DC000FCF7E2FC40B2012801D0062008BD022019
:104DD00008BD10B5C94C2078C00601D4012000E000
:104DE0001020FFF7BDFF002020746061A061E0602B
:104DF000207710BDF8B50F460021060EBF4C354692
:104E00003960142E17D2257080B26060002D01D059
:104E1000012D07D1BE49280608436160002101F039
:104E20006FF838602078122801D0132803D1606809
:104E300002280BD86074112E26D00EDC022E20D052
:104E400006DC002E1DD0012E13D11AE0112022E025
:104E5000032E16D0102E0CD116E0FD2E2CD004DC23
:104E6000122E0ED0132E04D10BE0FE2E16D0FF2EE4
:104E70000CD00820FFF774FF142020700020386049
:104E8000F8BDFFF7A6FFF8BD082004E0FFF779FFA3
:104E9000FFF742FF0320FFF763FFF8BD207F0028E4
:104EA00001D0042001E0FFF77BFFFFF759FFFFF778
:104EB00068FFFFF731FFF8BD002001F027F8F8BDCB
:104EC00010B504469148042302888E483321801E81
:104ED00000F0D2FE046000F0E1FE10BDFEB5064613
:104EE000002001246404009001900346024601461C
:104EF000029065123046FCF731FDFCF7EAFB85496C
:104F000080B2401802D0012800D1840429462046EE
:104F1000FCF7DEFAFEBDF8B5044678487E4E017A0D
:104F200000270906090FA171027AFF4313071B0F1F
:104F3000E37102891204120F227002891205120F06
:104F4000627082681202120FA27082681203120F3E
:104F5000E2708268120F227180680001000F607198
:104F6000282041438A1999005058002801D038461A
:104F700000E001205050A579E279C11700F0CCFF84
:104F80002A0100F0C9FF654A136855681843294390
:104F900010605160A078282148438219E078810090
:104FA0005058002801D0384600E001205050A57824
:104FB000E278C11700F0B0FF2A0100F0ADFF574DB5
:104FC0002A686B681043194328606960207928219A
:104FD00048438219607981005058002801D0384632
:104FE00000E00120505026796279C11700F094FF4B
:104FF000320100F091FF2A686B6810431943286062
:10500000696020782821484343494118607880002E
:105010000A58002A00D101270F50384626786278B6
:10502000F91700F079FF320100F076FF2B686A680B
:10503000184311432860696001200090032636025E
:10504000617820780823324600F078FF002500952B
:10505000E179A0790723324600F070FF0095E178EE
:10506000A0780623324600F069FF00956179207927
:105070000523002200F062FFF8BDF8B504461F4882
:10508000254F017A00250906090FA170017AED4329
:105090000907090FE17001890904090F21700289CC
:1050A0001205130F63708068000C60602820414374
:1050B000CA1999005058002801D0284600E0012064
:1050C000505026786278C11700F026FF320100F0B8
:1050D00023FF124E326873681043194330607160C9
:1050E000A07828214843C119E07880000A58002A96
:1050F00000D101250D502846A77811E0BC80002082
:105100007067002008CC0000748000206A800020B6
:10511000BC680020F010FFFF2890002020900020A5
:10512000E278E91700F0F8FE3A0100F0F5FE336886
:1051300072681843114330607160002500956178F2
:10514000207809232A4600F0F9FE0095E178A0783E
:105150000A23002200F0F2FEF8BDF0B5FE4D022455
:105160002878E60185B000280AD0012808D0294611
:105170004A68896802282AD003284BD0082476E0A0
:10518000F64F00063843002100F0BAFE8004010CFF
:10519000287C4218B24248D8711A091A8AB2F049DA
:1051A00041183846FC38801805E00A68091F04C019
:1051B0002A7C121F2A742A7C002AF6D12878002122
:1051C0000006384300F09CFEFFF77AFE4BE001201A
:1051D0004006104300F094FE8004070C287CC019A0
:1051E000B04222D802A8FFF748FF0398012380B2FB
:1051F00000220221FCF748FC68682A7CC119D848C3
:10520000001DFCF75EFD297C814200D00624FCF7DE
:105210006BFC1DE003200006104300F071FE8004CB
:10522000070C287CC019B04201D907241FE068464A
:10523000FFF771FE6846FFF751FE68682A7CC119C6
:10524000C748001DFCF7A0FA297C814200D0062443
:105250002878696800060843A96800F051FEFFF746
:105260002FFE022C03D1FFF78CFDFFF755FD2046E2
:10527000FFF776FD05B0F0BD70B502460020160BB5
:10528000C04336030C0B090500D0641C002C01D070
:1052900000250BE00124002520213046FCF7F0F921
:1052A000012109037618002802D16D1CA542F3D311
:1052B00070BD0021FF2802D0401CC0B270470846D4
:1052C0007047FF2802D0FF2905D006E0FF2908D04B
:1052D000002906D001E0002801D0884201D902202F
:1052E00070470120704710B59B4B1B78132B02D0E1
:1052F000FCF778FC10BDFCF76BF910BDF7B59CB05E
:1053000000271E980C463E46402805D3207870287A
:1053100002D16078512802D012201FB0F0BD65681C
:105320008D492846403008621F210C22090303A83A
:10533000FFF7D9FF0C2847D16846007B702803D1BE
:105340006846407B522801D01420E6E7049801907B
:1053500005981390002D03D00199401AA84201D25C
:105360001320DAE703A840220290FFF7BCFF402891
:105370002AD16846C07B15906846817B06A81890A4
:1053800020460C301790AA2907D16846007B702868
:1053900003D16846407B512803D001270020159097
:1053A0000BE010221899179800F0C0FC002804D1D7
:1053B000E0690A99884200D1022740221399029895
:1053C000FFF791FF402801D01620A6E76846C07B72
:1053D00000906846807BAA2807D16846007B702829
:1053E00003D16846407B512803D00126002000905D
:1053F0000BE010221899179800F098FC002804D1AF
:10540000E0690A99884200D102261C98002801D040
:10541000022807D9012F11D0012E1CD00099159810
:10542000FFF74FFF1790FF22402103A800F07AFDFD
:105430001798022815D0022F2BD004E0FF2240211C
:1054400003A800F06FFD444901984860002E22D067
:10545000022E20D00EE0FF22402103A800F062FDC2
:1054600001E0022E15D03C4913984860002F0ED061
:10547000022F0CD00126384F3878132810D0402244
:1054800003A87968FCF71DFC402839D10FE0159876
:1054900002E0152041E70098FFF70BFF0646EAE718
:1054A0004035A9B27868FFF7E7FE002828D16846A2
:1054B000C67360680490A0680590E168636922691A
:1054C000A06906AD0EC50990E0690A90217868468A
:1054D00001736178417320461E9C39784030403C0E
:1054E000132979680ED040312246FCF7EAFBA0422E
:1054F00006D1402279680298FCF7E3FB40280DD0E2
:1055000006200AE740312246FCF73EF9A042F7D1D7
:10551000402279680298FCF737F9EFE70020FCE6B3
:10552000F0B50D4C0E4A0225002085B05432616959
:1055300004E0237F165C73402377401C8142F8D837
:105540002078002612280DD0132839D00825E8B27B
:10555000FFF706FC8EE60000BC800020BC6800203F
:105560006C67002002A8FFF788FD0398012380B232
:1055700000220221FCF788FA6269002A02D0A069A1
:10558000002811D0A069216A82184B1C9A4240D889
:105590008A4201D9091A61616168274609182648BB
:1055A0006269FCF78EFB28E0607C2349FFF7A6FECA
:1055B000002829D085B26661A069FFF781FCC6E7A3
:1055C0006846FFF7A8FC6846FFF788FC6269002A76
:1055D00002D0A0690028E7D0A069216A82184B1C7C
:1055E0009A4216D88A4201D9091A61616168274630
:1055F000091811486269FCF7C7F87969814208D136
:10560000B8694018B861D6E76269A1698918A161D3
:10561000D1E70625CFE770B5084C094D214628464D
:1056200000F06EFC0104090C05D083B2024A214649
:10563000284600F07DFC70BDC06700200003060511
:105640000028000310B510460C4600F0AFFA012800
:1056500009D1322201231146900200F00DFB21787E
:10566000017000F01BFB002010BD70B54A4C0D46C8
:10567000207814283DD2A97800293CD0E16800297F
:1056800033D0C00618D4207CEA78811850292ED84F
:1056900042494018291D00F03BFA207CE978401867
:1056A000C0B22074E168814201D1FFF756FD207C31
:1056B00018E0FFF755FB1EE0EA786069FF238118C8
:1056C0000133994213D836494018291D00F020FAB9
:1056D000E978606940186061E168814201D1FFF7B3
:1056E0001FFF6069E168884205D90520E1E70720CE
:1056F000DFE70820DDE7002070BD08B588780028C6
:1057000006D048686946FFF775FB0098FFF7D8FB9D
:10571000002008BD10B5887800280ED01E4A4968C0
:105720009160107802280AD0032808D0122804D0EB
:10573000132802D00820FFF713FB002010BD526889
:105740000006104300F0DCFBFFF7BAFBF5E770B58D
:1057500088780D4600281DD0A888002805D00E4C5A
:105760002178CA0603D4820701D005200EE014294F
:1057700010D2C90605D4502807D8FFF7CDFAA8885B
:1057800007E0FF210131884203D90720FFF7E8FA3B
:1057900000E0E060002070BDBC8000207067002049
:1057A000C0670020024670B54A40D30FDB074000B7
:1057B0002DD04A002AD0010E140E0919000212023F
:1057C000400A520A8418E50104465443000A120AAA
:1057D0002E045043A4194219200CC543AA18120CD8
:1057E00001257F39521CAD0352191204240400D044
:1057F000521C104301D44000491EC2B20C06C0091D
:105800002018401C4008802A02D003E0002070BD10
:1058100040084000002900DA0020184370BD70B530
:1058200002464A40D50F40004A00ED0740085208A2
:10583000002814D0002A12D0C40DD30D410201203B
:10584000C0055202490A520AE41A091812187D3496
:10585000914201D3641C00E04900002C01DA0020D1
:1058600070BD0023914201D3891A034340084900C7
:105870000028F7D100290AD0914202D10121C9079D
:1058800005E0914201D2012101E00121C943E00577
:10589000C018401900F063F870BD420005D0420006
:1058A000120E52428A4201DB00207047C9050818D7
:1058B0007047C217C10F504010B54018CA07962351
:1058C000002100F054F810BD10B5002296231146B7
:1058D00000F04DF810BD410040020122400AD205FF
:1058E000090E80187F2901DA00207047962903DC11
:1058F0009622511AC8407047963988407047C20FA7
:10590000D207400040080BD0C10D0723DB01C918A6
:1059100040020905400A1143C2084007114370477D
:10592000002001467047CB0FDB07490010B549083E
:1059300002460A4307D00A0D07240903E401090BB4
:10594000121B002A01DC002010BDC900440F0C43CB
:10595000C100E018D205801800F001F810BD002940
:1059600004DA401C490001D140084000704770B47F
:105970000024050C05D11024000402D1002922D0F6
:105980001124050E01D108340002050F01D1241D98
:105990000001850F01D1A41C8000002801DB641CDC
:1059A0004000002908D020252E1B0D46F540A140BF
:1059B00000D00121294308431B1B0106DB1D000AFF
:1059C000002B02DA002070BC7047DB051818801825
:1059D0000029F8DA401C4900F5D170BC40084000AD
:1059E00070470000064C0125064E05E02046E3689E
:1059F00007C82B4398471034B442F7D3FAF724FD75
:105A0000BC660020FC66002003B40148019001BD83
:105A1000551B020003B40148019001BD0F3B030078
:105A200003B40148019001BDCF2B030003B401482A
:105A3000019001BDCB2C030003B40148019001BDCE
:105A40000990020003B40148019001BD1F2102002A
:105A500003B40148019001BDC12D030003B4014806
:105A6000019001BD0921030003B40148019001BD6B
:105A7000C92D030003B40148019001BD2B69020048
:105A800003B40148019001BDEB31030003B40148A8
:105A9000019001BD3D32030003B40148019001BDF6
:105AA000D721030003B40148019001BDA73A0300C8
:105AB00003B40148019001BD913B030003B40148C8
:105AC000019001BD2F2F030003B40148019001BDD7
:105AD000938F020003B40148019001BDCD8C0200F8
:105AE00003B40148019001BD418F020003B4014895
:105AF000019001BD2768020003B40148019001BD77
:105B00003968020003B40148019001BDB78002006A
:105B100003B40148019001BD213B030003B40148D7
:105B2000019001BDD33A030003B40148019001BDC7
:105B3000BF22020003B40148019001BDEB2603001F
:105B400003B40148019001BD3524030003B40148AA
:105B5000019001BD2F22020003B40148019001BD54
:105B6000DD20030003B40148019001BD533B030055
:105B700003B40148019001BD9D20030003B4014816
:105B8000019001BD3350020003B40148019001BDF2
:105B90003126030003B40148019001BD55480200BD
:105BA00003B40148019001BD1F50020003B4014835
:105BB000019001BDB326030003B40148019001BD6B
:105BC000FD3D030003B40148019001BDA528030079
:105BD00003B40148019001BDD5AF020003B40148F0
:105BE000019001BDA1A5020003B40148019001BDCF
