:020000040000FA
:1000000008060010C1010000C5010000C701000082
:10001000C9010000CB010000CD010000000000007C
:10002000000000000000000000000000CF01000000
:10003000D101000000000000D3010000790200009F
:10004000D7010000D7010000D7010000D701000050
:10005000D7010000D7010000D7010000D701000040
:10006000D7010000D7010000D7010000D701000030
:10007000D7010000D7010000D7010000D701000020
:10008000D7010000D7010000D7010000D701000010
:10009000D7010000D7010000D7010000D701000000
:1000A000D7010000D7010000D7010000D7010000F0
:1000B000A9030000830300005D030000D7010000D6
:1000C0000348854600F0FAF8004800479701000011
:1000D0000806001010B500F07AF92348816BC908B2
:1000E000C9008163826B01210A438263C26BD2081B
:1000F000D200C263C26B0A43C2631B4A4032136818
:10010000DB08DB00136013680B431360426BD208FB
:10011000D2004263426B0A4342630122072102205C
:1001200000F068F910BD10B500F084F8FFF7D2FFB9
:100130000E4800F001F810BD0D4910B5884201D9F4
:10014000012010BD0102090A0A48491E41610A49FD
:100150000722CB691B021B0A04042343CB61002145
:1001600081610261084610BD404004400053070011
:10017000FFFFFF0000E000E004ED00E000F084F885
:100180000721022000F047F90022322311461046D1
:1001900000F058FCF4E710B500F078F8FFF7C3FF63
:1001A00000F060FA0123044A0021044800F0B2FB89
:1001B00000F0CDFA002010BD480100107D010000C4
:1001C00005480047FEE7FEE7FEE7FEE7FEE7FEE73D
:1001D000FEE7FEE7FEE7FEE7C1000000F0B52348BA
:1001E000214B0360224801210160416000224260EE
:1001F00041604468E407FCD01D4D403DAC682326B7
:10020000640A64023443AC601A4CA66B8027BE4378
:10021000A663EC68E407FCD00324046341634263F3
:100220004163426BD207FCD0816310489900416062
:100230008160F0BD0E4800B5022140380160002108
:1002400001620C48816B2022914381630020401C95
:10025000FF28FCD9FFF7C2FF0548403001680122A2
:1002600012041143016000BD001BB7000000001024
:10027000408004400082044010B500F037FA00F0DE
:1002800078FA00F03DFA10BD62B6704772B670475A
:1002900030B50B46014600202022012409E00D461E
:1002A000D5409D4205D31D469540491B25469540A6
:1002B00040191546521E002DF1DC30BD064C0125BB
:1002C000064E05E02046E36807C82B4398471034E4
:1002D000B442F7D3FFF7F8FED00B0000F00B00009C
:1002E00002E008C8121F08C1002AFAD170477047FF
:1002F000000000000000000000000000FFFFFFFF02
:1003000001228A4000280AD001280AD002280AD0F7
:10031000032803D14848C1691143C1617047474868
:10032000F9E74748F7E74748F5E703460122002089
:100330008A40002B07D0012B09D0022B0CD0032BB5
:1003400004D13D4904E03D4902E0012070473C49A9
:1003500089691142F9D170473A49F9E710B53A4C29
:100360002068401C206001210846FFF7DEFF0028BE
:1003700006D0E068401CE06001210846FFF7C0FF9E
:1003800010BD10B5304C6068401C60600121022037
:10039000FFF7CBFF002806D02069401C2061012117
:1003A0000220FFF7ADFF10BD10B5274CA068401C20
:1003B000A06001210320FFF7B8FF002806D0606984
:1003C000401C606101210320FFF79AFF10BD10B5AA
:1003D0001E4801684022114301601F2000F025F8EB
:1003E0001E2000F022F81D2000F01FF81C2000F055
:1003F0001CF810BD30B50125ED030123144C8B40D2
:100400008000205840190168002A01D0194300E0FB
:100410009943016030BD82000D4882580120884018
:1004200081005358434053507047C106C90E012004
:1004300088400849086070470080035000800050E1
:1004400000800150008002500C00001080800440A9
:10045000C00A000000E100E0204A80200021401E88
:100460001160FCD11E4801701E4941607047704701
:100470007047704710B50124131F24061C60083A0A
:100480001060121F18481060101F184B0360001FE7
:10049000174A0260001F174A0260001F52100260D4
:1004A000001F0160001F14490160001F1349016013
:1004B000001F13490160001F91000160001F1149D6
:1004C0000160001F11010160001F59100160001F31
:1004D000D100016010BD7047704700004C01001052
:1004E0002400001048030010EFEFEFEF1212121279
:1004F00003030303020202020707070706060606B4
:100500000505050511111111EFF3108072B6704742
:1005100080F31088704741488047454801210170A9
:10052000454801680A6882F30888FFBC804689460E
:1005300092469B4604B00FBC84468E4683F30388E4
:1005400004B487B00FBC03B062B600BD72B684B00D
:100550000FB408B0EFF303837246714660460FB4E0
:1005600084B04046494652465B46FFB4EFF30880EC
:10057000304909680860294880472B482B490A7888
:1005800002702C482C490A680260106880F30888C1
:10059000FFBC8046894692469B4604B00FBC844609
:1005A0008E4683F3038804B487B00FBC03B062B6F1
:1005B00000BD00BF72B684B00FB408B0EFF3038380
:1005C0007246714660460FB484B040464946524672
:1005D0005B46FFB4EFF308801649096808600F48CE
:1005E0008047114811490A780270124812490A6876
:1005F0000260106880F30888FFBC804689469246F6
:100600009B4604B00FBC84468E4683F3038804B433
:1006100087B00FBC03B062B600BD00BFD7040000B6
:10062000010700002C0000102E0000102F00001009
:10063000320000103C00001044000010AD4CFFF7E9
:1006400063FFE168491CE160FFF762FFFFF711FFFC
:10065000F5E7002203E00270401C491E89B2002920
:10066000F9D1704738B5FFF7F7FEA24C002323708D
:100670006370E371A371A360E3602371611D184689
:100680000B70491C401C0006000EF9D0A370E370EB
:10069000A361A02198482361FFF7DBFF964818214A
:1006A0001838FFF7D6FF94480021024628323F252C
:1006B00042608575C375491C28302832C9B20329A8
:1006C000F6D343608575C3758B48E361024660616C
:1006D00005231C3A0021894800F01CF96A4688A1CC
:1006E000052000F053F9FFF7C2FE38BD814881793B
:1006F000012904D10178FF2901D2491C01707047FA
:1007000070B57C4CA079012820D1FFF7FDFE05468D
:100710002078002804D0401E0006000E207012D160
:10072000607800280FD100F0D9F8E078A1788842ED
:1007300009D07149800018390858A061A068401C90
:10074000A060FFF737FF2846FFF7E2FE70BD10B547
:10075000684CA07900280BD100F0C0F8E078664919
:10076000A070800018390858A0612061FFF7D3FEFF
:1007700010BD70B55F4DA87901282AD1EC6925E03C
:10078000FFF7C2FEA18900291DD0491E0904090CEA
:10079000A18118D1A17B3722114204D0C822114077
:1007A000A173012100E00021E173A17B09070AD4B4
:1007B000217D2A79114329714E49A27C491DE37C90
:1007C0008E5C1E438E546468FFF7A2FE207C0528D1
:1007D000D6D170BD70B5FFF797FE464C0546207820
:1007E000002812D1607800280FD100F077F8E07867
:1007F000A178884209D04049800018390858A06182
:10080000A068401CA060FFF7A1FE2846FFF780FE0D
:1008100070BD002204E00370401C491C521CD2B27F
:100820000B78002BF7D1002101701046704701466C
:10083000002002E0491C401CC0B20A78002AF9D10D
:100840007047F8B507460E46FFF75EFE294D6C6906
:10085000002C3FD061686961FFF75AFE266027745B
:100860000026A673FA08E6737B07A6815B0F0120BA
:1008700066750146A2749140637421759840E074D6
:100880003F20A075E6752046FFF726FE2046FFF7BD
:10089000EFFDFFF739FE184A0146B800183A145028
:1008A000E869A6606060002800D08460EC61207D6B
:1008B0002A79104328710F48A27C401D835CE47C98
:1008C00023438354E879401CE8710846FFF720FE73
:1008D0000020F8BDFFF71CFE4220F8BD10B5054A08
:1008E0000B491079541D085CC300205C085C181883
:1008F000D07010BD2C000010640400103D060000F4
:1009000075432F4F532D49492049646C6500000001
:10091000D00A0000FFB583B007461E46FFF7F4FD7E
:1009200034490978002904D0FFF7F2FD3C2007B0D4
:10093000F0BD314CB5006159002903D0FFF7E8FD47
:100940002820F4E701216151FFF7E2FD002338463A
:10095000059A0499FFF78EFD002301460093019349
:100960001A4630460293FFF76CFF060007D0FFF7E8
:10097000CBFD00216151FFF7CBFD3046D7E71F4883
:1009800000780128F9D1FFF725FFF6E7F7B505460E
:10099000184814460078002802D012201070FEBDBE
:1009A000FFF7B2FD0646FF2D02D115480068057C11
:1009B0001149A8000D584327002D0BD0012D09D057
:1009C0000198FFF734FF0F2809D93046FFF7A0FD43
:1009D00041200DE03046FFF79BFD2770FEBD284605
:1009E00016300199FFF715FF3046FFF791FD002003
:1009F0002070FEBD2C0000104C04001032000010CE
:100A00003C00001070B5044625480078002818D135
:100A1000002C16D0FFF778FD05462248224B0168CE
:100A20008A7CCE7C985CB043985404D11F480B7DDF
:100A300002789A4302708C812846FFF769FDFFF720
:100A4000C9FE70BD70B50D461549044609781646B5
:100A5000002901D0552070BD581D642148437D21D7
:100A6000C900FFF715FCE12109014C433C214D432E
:100A700061198919642251434018040C80B2FFF7B0
:100A8000C1FF0125ED0307E02846FFF7BBFF28461D
:100A9000FFF7B8FF641EA4B2002CF5D1002070BD92
:100AA0002C0000103C00001031000010300000103D
:100AB000002001E001C1121F002AFBD17047000095
:100AC00000000050000001500000025000000350E0
:100AD000000001000200010003000100020001000B
:100AE00004000100020001000300010002000100F7
:100AF00005000100020001000300010002000100E6
:100B000004000100020001000300010002000100D6
:100B100006000100020001000300010002000100C4
:100B200004000100020001000300010002000100B6
:100B300005000100020001000300010002000100A5
:100B40000400010002000100030001000200010096
:100B50000700010002000100030001000200010083
:100B60000400010002000100030001000200010076
:100B70000500010002000100030001000200010065
:100B80000400010002000100030001000200010056
:100B90000600010002000100030001000200010044
:100BA0000400010002000100030001000200010036
:100BB0000500010002000100030001000200010025
:100BC0000400010002000100030001000200010016
:100BD000F00B0000000000104C000000E0020000DC
:100BE0003C0C00004C000010BC050000B00A0000E6
:100BF000001BB700001BB700001BB700000000007F
:100C000000000000000000000000000000000000E4
:100C100000000000000000000000000000000000D4
:100C200000000000000000000000000000000000C4
:0C0C3000000000000000000000000000B8
:04000005000000C136
:00000001FF
